{
    "_format": "hh-sol-artifact-1",
    "contractName": "HKPtoken",
    "sourceName": "contracts/Token.sol",
    "abi": [
        {
            "inputs": [],
            "stateMutability": "nonpayable",
            "type": "constructor"
        },
        {
            "anonymous": false,
            "inputs": [
                {
                    "indexed": true,
                    "internalType": "address",
                    "name": "owner",
                    "type": "address"
                },
                {
                    "indexed": true,
                    "internalType": "address",
                    "name": "spender",
                    "type": "address"
                },
                {
                    "indexed": false,
                    "internalType": "uint256",
                    "name": "value",
                    "type": "uint256"
                }
            ],
            "name": "Approval",
            "type": "event"
        },
        {
            "anonymous": false,
            "inputs": [
                {
                    "indexed": true,
                    "internalType": "address",
                    "name": "previousOwner",
                    "type": "address"
                },
                {
                    "indexed": true,
                    "internalType": "address",
                    "name": "newOwner",
                    "type": "address"
                }
            ],
            "name": "OwnershipTransferred",
            "type": "event"
        },
        {
            "anonymous": false,
            "inputs": [
                {
                    "indexed": true,
                    "internalType": "address",
                    "name": "from",
                    "type": "address"
                },
                {
                    "indexed": true,
                    "internalType": "address",
                    "name": "to",
                    "type": "address"
                },
                {
                    "indexed": false,
                    "internalType": "uint256",
                    "name": "value",
                    "type": "uint256"
                }
            ],
            "name": "Transfer",
            "type": "event"
        },
        {
            "inputs": [
                {
                    "internalType": "address",
                    "name": "owner",
                    "type": "address"
                },
                {
                    "internalType": "address",
                    "name": "spender",
                    "type": "address"
                }
            ],
            "name": "allowance",
            "outputs": [
                {
                    "internalType": "uint256",
                    "name": "",
                    "type": "uint256"
                }
            ],
            "stateMutability": "view",
            "type": "function"
        },
        {
            "inputs": [
                {
                    "internalType": "address",
                    "name": "spender",
                    "type": "address"
                },
                {
                    "internalType": "uint256",
                    "name": "amount",
                    "type": "uint256"
                }
            ],
            "name": "approve",
            "outputs": [
                {
                    "internalType": "bool",
                    "name": "",
                    "type": "bool"
                }
            ],
            "stateMutability": "nonpayable",
            "type": "function"
        },
        {
            "inputs": [
                {
                    "internalType": "address",
                    "name": "account",
                    "type": "address"
                }
            ],
            "name": "balanceOf",
            "outputs": [
                {
                    "internalType": "uint256",
                    "name": "",
                    "type": "uint256"
                }
            ],
            "stateMutability": "view",
            "type": "function"
        },
        {
            "inputs": [
                {
                    "internalType": "uint256",
                    "name": "amount",
                    "type": "uint256"
                }
            ],
            "name": "burn",
            "outputs": [],
            "stateMutability": "nonpayable",
            "type": "function"
        },
        {
            "inputs": [
                {
                    "internalType": "address",
                    "name": "account",
                    "type": "address"
                },
                {
                    "internalType": "uint256",
                    "name": "amount",
                    "type": "uint256"
                }
            ],
            "name": "burnFrom",
            "outputs": [],
            "stateMutability": "nonpayable",
            "type": "function"
        },
        {
            "inputs": [],
            "name": "decimals",
            "outputs": [
                {
                    "internalType": "uint8",
                    "name": "",
                    "type": "uint8"
                }
            ],
            "stateMutability": "view",
            "type": "function"
        },
        {
            "inputs": [
                {
                    "internalType": "address",
                    "name": "spender",
                    "type": "address"
                },
                {
                    "internalType": "uint256",
                    "name": "subtractedValue",
                    "type": "uint256"
                }
            ],
            "name": "decreaseAllowance",
            "outputs": [
                {
                    "internalType": "bool",
                    "name": "",
                    "type": "bool"
                }
            ],
            "stateMutability": "nonpayable",
            "type": "function"
        },
        {
            "inputs": [
                {
                    "internalType": "address",
                    "name": "spender",
                    "type": "address"
                },
                {
                    "internalType": "uint256",
                    "name": "addedValue",
                    "type": "uint256"
                }
            ],
            "name": "increaseAllowance",
            "outputs": [
                {
                    "internalType": "bool",
                    "name": "",
                    "type": "bool"
                }
            ],
            "stateMutability": "nonpayable",
            "type": "function"
        },
        {
            "inputs": [],
            "name": "maxSupply",
            "outputs": [
                {
                    "internalType": "uint256",
                    "name": "",
                    "type": "uint256"
                }
            ],
            "stateMutability": "view",
            "type": "function"
        },
        {
            "inputs": [
                {
                    "internalType": "uint256",
                    "name": "amount",
                    "type": "uint256"
                }
            ],
            "name": "mint",
            "outputs": [],
            "stateMutability": "payable",
            "type": "function"
        },
        {
            "inputs": [],
            "name": "name",
            "outputs": [
                {
                    "internalType": "string",
                    "name": "",
                    "type": "string"
                }
            ],
            "stateMutability": "view",
            "type": "function"
        },
        {
            "inputs": [],
            "name": "owner",
            "outputs": [
                {
                    "internalType": "address",
                    "name": "",
                    "type": "address"
                }
            ],
            "stateMutability": "view",
            "type": "function"
        },
        {
            "inputs": [],
            "name": "renounceOwnership",
            "outputs": [],
            "stateMutability": "nonpayable",
            "type": "function"
        },
        {
            "inputs": [],
            "name": "returnState",
            "outputs": [
                {
                    "internalType": "uint256",
                    "name": "_myBalance",
                    "type": "uint256"
                },
                {
                    "internalType": "uint256",
                    "name": "_maxSupply",
                    "type": "uint256"
                },
                {
                    "internalType": "uint256",
                    "name": "_totalSupply",
                    "type": "uint256"
                },
                {
                    "internalType": "uint256",
                    "name": "_tokenPrice",
                    "type": "uint256"
                }
            ],
            "stateMutability": "view",
            "type": "function"
        },
        {
            "inputs": [],
            "name": "symbol",
            "outputs": [
                {
                    "internalType": "string",
                    "name": "",
                    "type": "string"
                }
            ],
            "stateMutability": "view",
            "type": "function"
        },
        {
            "inputs": [],
            "name": "tokenPrice",
            "outputs": [
                {
                    "internalType": "uint256",
                    "name": "",
                    "type": "uint256"
                }
            ],
            "stateMutability": "view",
            "type": "function"
        },
        {
            "inputs": [],
            "name": "totalSupply",
            "outputs": [
                {
                    "internalType": "uint256",
                    "name": "",
                    "type": "uint256"
                }
            ],
            "stateMutability": "view",
            "type": "function"
        },
        {
            "inputs": [
                {
                    "internalType": "address",
                    "name": "to",
                    "type": "address"
                },
                {
                    "internalType": "uint256",
                    "name": "amount",
                    "type": "uint256"
                }
            ],
            "name": "transfer",
            "outputs": [
                {
                    "internalType": "bool",
                    "name": "",
                    "type": "bool"
                }
            ],
            "stateMutability": "nonpayable",
            "type": "function"
        },
        {
            "inputs": [
                {
                    "internalType": "address",
                    "name": "from",
                    "type": "address"
                },
                {
                    "internalType": "address",
                    "name": "to",
                    "type": "address"
                },
                {
                    "internalType": "uint256",
                    "name": "amount",
                    "type": "uint256"
                }
            ],
            "name": "transferFrom",
            "outputs": [
                {
                    "internalType": "bool",
                    "name": "",
                    "type": "bool"
                }
            ],
            "stateMutability": "nonpayable",
            "type": "function"
        },
        {
            "inputs": [
                {
                    "internalType": "address",
                    "name": "newOwner",
                    "type": "address"
                }
            ],
            "name": "transferOwnership",
            "outputs": [],
            "stateMutability": "nonpayable",
            "type": "function"
        },
        {
            "inputs": [],
            "name": "withdrawEther",
            "outputs": [],
            "stateMutability": "nonpayable",
            "type": "function"
        }
    ],
    "bytecode": "0x60806040523480156200001157600080fd5b50604051806040016040528060088152602001672425a83a37b5b2b760c11b815250604051806040016040528060038152602001620484b560ec1b8152508160039081620000609190620001a5565b5060046200006f8282620001a5565b5050506200008c62000086620000aa60201b60201c565b620000ae565b66071afd498d0000600655680821ab0d441498000060075562000271565b3390565b600580546001600160a01b038381166001600160a01b0319831681179093556040519116919082907f8be0079c531659141344cd1fd0a4f28419497f9722a3daafe3b4186f6b6457e090600090a35050565b634e487b7160e01b600052604160045260246000fd5b600181811c908216806200012b57607f821691505b6020821081036200014c57634e487b7160e01b600052602260045260246000fd5b50919050565b601f821115620001a057600081815260208120601f850160051c810160208610156200017b5750805b601f850160051c820191505b818110156200019c5782815560010162000187565b5050505b505050565b81516001600160401b03811115620001c157620001c162000100565b620001d981620001d2845462000116565b8462000152565b602080601f831160018114620002115760008415620001f85750858301515b600019600386901b1c1916600185901b1785556200019c565b600085815260208120601f198616915b82811015620002425788860151825594840194600190910190840162000221565b5085821015620002615787850151600019600388901b60f8161c191681555b5050505050600190811b01905550565b61121680620002816000396000f3fe60806040526004361061016a5760003560e01c80637362377b116100cb578063a0712d681161007f578063d5abeb0111610059578063d5abeb01146103d3578063dd62ed3e146103e9578063f2fde38b1461042f57600080fd5b8063a0712d6814610380578063a457c2d714610393578063a9059cbb146103b357600080fd5b80637ff9b596116100b05780637ff9b5961461032d5780638da5cb5b1461034357806395d89b411461036b57600080fd5b80637362377b146102f857806379cc67901461030d57600080fd5b8063395093511161012257806358b455571161010757806358b455571461026757806370a08231146102ad578063715018a6146102e357600080fd5b8063395093511461022557806342966c681461024557600080fd5b806318160ddd1161015357806318160ddd146101ca57806323b872dd146101e9578063313ce5671461020957600080fd5b806306fdde031461016f578063095ea7b31461019a575b600080fd5b34801561017b57600080fd5b5061018461044f565b6040516101919190610ef5565b60405180910390f35b3480156101a657600080fd5b506101ba6101b5366004610f7d565b6104e1565b6040519015158152602001610191565b3480156101d657600080fd5b506002545b604051908152602001610191565b3480156101f557600080fd5b506101ba610204366004610fa7565b6104fb565b34801561021557600080fd5b5060405160128152602001610191565b34801561023157600080fd5b506101ba610240366004610f7d565b61051f565b34801561025157600080fd5b50610265610260366004610fe3565b61055e565b005b34801561027357600080fd5b5033600090815260208190526040902054600754600254600654604080519485526020850193909352918301526060820152608001610191565b3480156102b957600080fd5b506101db6102c8366004610ffc565b6001600160a01b031660009081526020819052604090205490565b3480156102ef57600080fd5b5061026561056b565b34801561030457600080fd5b5061026561057f565b34801561031957600080fd5b50610265610328366004610f7d565b6105c0565b34801561033957600080fd5b506101db60065481565b34801561034f57600080fd5b506005546040516001600160a01b039091168152602001610191565b34801561037757600080fd5b506101846105d9565b61026561038e366004610fe3565b6105e8565b34801561039f57600080fd5b506101ba6103ae366004610f7d565b6106f4565b3480156103bf57600080fd5b506101ba6103ce366004610f7d565b61079e565b3480156103df57600080fd5b506101db60075481565b3480156103f557600080fd5b506101db61040436600461101e565b6001600160a01b03918216600090815260016020908152604080832093909416825291909152205490565b34801561043b57600080fd5b5061026561044a366004610ffc565b6107ac565b60606003805461045e90611051565b80601f016020809104026020016040519081016040528092919081815260200182805461048a90611051565b80156104d75780601f106104ac576101008083540402835291602001916104d7565b820191906000526020600020905b8154815290600101906020018083116104ba57829003601f168201915b5050505050905090565b6000336104ef818585610839565b60019150505b92915050565b600033610509858285610992565b610514858585610a24565b506001949350505050565b3360008181526001602090815260408083206001600160a01b03871684529091528120549091906104ef90829086906105599087906110a1565b610839565b6105683382610c11565b50565b610573610d72565b61057d6000610dcc565b565b610587610d72565b6005546040516001600160a01b03909116904780156108fc02916000818181858888f19350505050158015610568573d6000803e3d6000fd5b6105cb823383610992565b6105d58282610c11565b5050565b60606004805461045e90611051565b600754816105f560025490565b6105ff91906110a1565b11156106525760405162461bcd60e51b815260206004820152601460248201527f457863656564696e67206d617820737570706c7900000000000000000000000060448201526064015b60405180910390fd5b600654816106626012600a611198565b61066c90346111a7565b61067691906111be565b10156106ea5760405162461bcd60e51b815260206004820152602260248201527f506179204574686572206163636f7264696e6720746f20546f6b656e2050726960448201527f63650000000000000000000000000000000000000000000000000000000000006064820152608401610649565b6105683382610e36565b3360008181526001602090815260408083206001600160a01b0387168452909152812054909190838110156107915760405162461bcd60e51b815260206004820152602560248201527f45524332303a2064656372656173656420616c6c6f77616e63652062656c6f7760448201527f207a65726f0000000000000000000000000000000000000000000000000000006064820152608401610649565b6105148286868403610839565b6000336104ef818585610a24565b6107b4610d72565b6001600160a01b0381166108305760405162461bcd60e51b815260206004820152602660248201527f4f776e61626c653a206e6577206f776e657220697320746865207a65726f206160448201527f64647265737300000000000000000000000000000000000000000000000000006064820152608401610649565b61056881610dcc565b6001600160a01b0383166108b45760405162461bcd60e51b8152602060048201526024808201527f45524332303a20617070726f76652066726f6d20746865207a65726f2061646460448201527f72657373000000000000000000000000000000000000000000000000000000006064820152608401610649565b6001600160a01b0382166109305760405162461bcd60e51b815260206004820152602260248201527f45524332303a20617070726f766520746f20746865207a65726f20616464726560448201527f73730000000000000000000000000000000000000000000000000000000000006064820152608401610649565b6001600160a01b0383811660008181526001602090815260408083209487168084529482529182902085905590518481527f8c5be1e5ebec7d5bd14f71427d1e84f3dd0314c0f7b2291e5b200ac8c7c3b92591015b60405180910390a3505050565b6001600160a01b038381166000908152600160209081526040808320938616835292905220546000198114610a1e5781811015610a115760405162461bcd60e51b815260206004820152601d60248201527f45524332303a20696e73756666696369656e7420616c6c6f77616e63650000006044820152606401610649565b610a1e8484848403610839565b50505050565b6001600160a01b038316610aa05760405162461bcd60e51b815260206004820152602560248201527f45524332303a207472616e736665722066726f6d20746865207a65726f20616460448201527f64726573730000000000000000000000000000000000000000000000000000006064820152608401610649565b6001600160a01b038216610b1c5760405162461bcd60e51b815260206004820152602360248201527f45524332303a207472616e7366657220746f20746865207a65726f206164647260448201527f65737300000000000000000000000000000000000000000000000000000000006064820152608401610649565b6001600160a01b03831660009081526020819052604090205481811015610bab5760405162461bcd60e51b815260206004820152602660248201527f45524332303a207472616e7366657220616d6f756e742065786365656473206260448201527f616c616e636500000000000000000000000000000000000000000000000000006064820152608401610649565b6001600160a01b03848116600081815260208181526040808320878703905593871680835291849020805487019055925185815290927fddf252ad1be2c89b69c2b068fc378daa952ba7f163c4a11628f55a4df523b3ef910160405180910390a3610a1e565b6001600160a01b038216610c8d5760405162461bcd60e51b815260206004820152602160248201527f45524332303a206275726e2066726f6d20746865207a65726f2061646472657360448201527f73000000000000000000000000000000000000000000000000000000000000006064820152608401610649565b6001600160a01b03821660009081526020819052604090205481811015610d1c5760405162461bcd60e51b815260206004820152602260248201527f45524332303a206275726e20616d6f756e7420657863656564732062616c616e60448201527f63650000000000000000000000000000000000000000000000000000000000006064820152608401610649565b6001600160a01b0383166000818152602081815260408083208686039055600280548790039055518581529192917fddf252ad1be2c89b69c2b068fc378daa952ba7f163c4a11628f55a4df523b3ef9101610985565b6005546001600160a01b0316331461057d5760405162461bcd60e51b815260206004820181905260248201527f4f776e61626c653a2063616c6c6572206973206e6f7420746865206f776e65726044820152606401610649565b600580546001600160a01b038381167fffffffffffffffffffffffff0000000000000000000000000000000000000000831681179093556040519116919082907f8be0079c531659141344cd1fd0a4f28419497f9722a3daafe3b4186f6b6457e090600090a35050565b6001600160a01b038216610e8c5760405162461bcd60e51b815260206004820152601f60248201527f45524332303a206d696e7420746f20746865207a65726f2061646472657373006044820152606401610649565b8060026000828254610e9e91906110a1565b90915550506001600160a01b038216600081815260208181526040808320805486019055518481527fddf252ad1be2c89b69c2b068fc378daa952ba7f163c4a11628f55a4df523b3ef910160405180910390a35050565b600060208083528351808285015260005b81811015610f2257858101830151858201604001528201610f06565b5060006040828601015260407fffffffffffffffffffffffffffffffffffffffffffffffffffffffffffffffe0601f8301168501019250505092915050565b80356001600160a01b0381168114610f7857600080fd5b919050565b60008060408385031215610f9057600080fd5b610f9983610f61565b946020939093013593505050565b600080600060608486031215610fbc57600080fd5b610fc584610f61565b9250610fd360208501610f61565b9150604084013590509250925092565b600060208284031215610ff557600080fd5b5035919050565b60006020828403121561100e57600080fd5b61101782610f61565b9392505050565b6000806040838503121561103157600080fd5b61103a83610f61565b915061104860208401610f61565b90509250929050565b600181811c9082168061106557607f821691505b60208210810361108557634e487b7160e01b600052602260045260246000fd5b50919050565b634e487b7160e01b600052601160045260246000fd5b808201808211156104f5576104f561108b565b600181815b808511156110ef5781600019048211156110d5576110d561108b565b808516156110e257918102915b93841c93908002906110b9565b509250929050565b600082611106575060016104f5565b81611113575060006104f5565b816001811461112957600281146111335761114f565b60019150506104f5565b60ff8411156111445761114461108b565b50506001821b6104f5565b5060208310610133831016604e8410600b8410161715611172575081810a6104f5565b61117c83836110b4565b80600019048211156111905761119061108b565b029392505050565b600061101760ff8416836110f7565b80820281158282048414176104f5576104f561108b565b6000826111db57634e487b7160e01b600052601260045260246000fd5b50049056fea26469706673582212203bc26e5ac59dfd625dba887942287b7a44433ca887c1977d2f27a10b33d5118064736f6c63430008110033",
    "linkReferences": {},
    "deployedLinkReferences": {}
}